:020000040800F2
:1000000000280020053A00084D3A00084D3A000843
:100010004D3A00084D3A00084D3A00080000000033
:100020000000000000000000000000004D3A000841
:100030004D3A0008000000004D3A0008C7280008AB
:100040004D3A00084D3A00084D3A00084D3A000874
:100050004D3A00084D3A0008B5290008BB290008B0
:10006000C1290008C7290008CD2900084D3A000819
:100070004D3A00084D3A00084D3A00084D3A000844
:100080004D3A00084D3A00084D3A00084D3A000834
:100090004D3A00084D3A00084D3A0008D3290008AF
:1000A0004D3A0008B52500084D3A0008C92500085A
:1000B000CD250008E1250008000000004D3A0008A9
:1000C0004D3A000800000000000000004D3A000812
:1000D000000000005D3400087534000800000000D6
:1000E000E92900084D3A00084D3A000800000000D8
:1000F0000000000000000000000000000000000000
:0C01000000000000000000005FF808F1A3
:10010C0010B5054C237833B9044B13B10448AFF345
:10011C0000800123237010BD94000020000000001B
:10012C00DC3F000808B5034B1BB103490348AFF390
:10013C00008008BD0000000098000020DC3F000893
:10014C0008B506224FF41651144803F073FB4FF414
:10015C007A61134800F082FB0121C02003F0F2FC0D
:10016C0001211F2003F0EEFC01211E2003F0EAFC0C
:10017C000121042003F0E6FC0121032003F0E2FC42
:10018C000121022003F0DEFC0121084603F0DAFC19
:10019C00BDE808400121102003F0D4BC4C03002022
:1001AC00B000002010B50446C1091F2003F028FD43
:1001BC00C4F380111E2003F023FDC4F3401104206E
:1001CC0003F01EFDC4F30011032003F019FDC4F36A
:1001DC00C001022003F014FDC4F38001012003F0E0
:1001EC000FFDC4F340011020BDE8104003F008BD22
:1001FC000023C222C321014800F05EBAB0000020E7
:10020C00014800F027B900BFB000002037B56D469B
:10021C00044608222946054803F09BFB18B195E8D3
:10022C00030084E8030003B030BD00BFB000002021
:10023C00002307B5CDE90033064C6846FFF7E6FF0F
:10024C00C020009903F010FC019BE05CFFF7AAFFB3
:10025C00F3E700BF000000200020704790F86A20F0
:10026C0090F869309A420DD090F86A30034493F8B4
:10027C00292090F86A30013303F03F0380F86A308C
:10028C00104670474FF0FF30704790F8693090F887
:10029C006A2003F14000801A434203F03F0300F050
:1002AC003F0058BF5842704772B6002380F869303F
:1002BC0080F86A3062B6704790F86A2090F869301E
:1002CC009A421DBF90F86A30C01890F829004FF080
:1002DC00FF307047012A02D1016000207047022ACA
:1002EC0005D0032AF9D0002AF7D10260F5E70B6894
:1002FC000360F2E7036818477FB5214D0C462B6865
:10030C008B422FD01F4801F021FE1E48002C33D009
:10031C0002F086F801214FF6FE7204EB4403B0FBA9
:10032C00F3F6964220D8174801F0F6FF002231462A
:10033C00144802F0A1F800221248114602F0C2F84B
:10034C0000230193104B69460093104B0D48039307
:10035C000F4B029302F096F9029B43B9094801F046
:10036C00D1FE2C6004B070BD40084900D7E7694647
:10037C00032208469847F1E701F0A0FFF1E700BF20
:10038C002001002044010020A10600080103000800
:10039C00E102000890F82810D0E907238907C3F37D
:1003AC000F234FF00101408A4CBF5361136103F0DE
:1003BC00C9BB90F82830008A13F0020F0CBF022141
:1003CC00032103F0BFBB000090F8283070B55B0729
:1003DC0004460E460ED50B4D2B6861B1834209D0F5
:1003EC00FFF7E7FF4FF0FF32074B1A600222074B73
:1003FC001A602C6070BD8342FCD1FFF7CBFF2E60DE
:10040C00F8E700BF380100200C000020300100206C
:10041C0038B50D4D04462B68834213D10B4B19682C
:10042C000029FCD194F828305B0702D52046FFF751
:10043C00CBFF0021064B204629601960FFF75CFFBB
:10044C00012038BD0020FCE7400100203C010020C9
:10045C003801002010B50446024B0360FFF7D8FFAB
:10046C00204610BDFC3F000810B50446FFF7F2FF14
:10047C002046702102F059F9204610BDF8B504460B
:10048C00144F3868A04222D0134E3368002BFCD195
:10049C0008B1FFF7BDFF01254FF0FF320F4B20468F
:1004AC001D600F4B616A1A60FFF726FF94F8283025
:1004BC003C605B0703D40B4B1C600120F8BD336818
:1004CC00002BFAD129462046FFF77EFFF5E70020E6
:1004DC00F4E700BF400100203C0100203001002067
:1004EC000C0000203801002070B5044690F828302C
:1004FC00184D43F0080380F828302B68002BFCD1F2
:10050C0094F82820144B4900920741F400711960AB
:10051C0048BFC9434FF000064FF0030248BF1960B3
:10052C000E4B20461E600E4B616A1A60FFF7E4FE0C
:10053C0094F828305B0703D531462046FFF744FF7B
:10054C0094F8283001206FF3C30384F828302C6012
:10055C0070BD00BF3C0100202C01002028010020B0
:10056C0034010020184A38B51168034601390029B6
:10057C00116013DC154D29684C1C09292C600EDC0C
:10058C00D3E907431248C3F30F230168CD074CBFCF
:10059C0023616361032349080160136038BD0121A5
:1005AC00116090F82820150703D50022094B1A601A
:1005BC00F4E7192CF2DD5207F7D5074A126882428C
:1005CC00F3D1FFF701FFF0E73401002028010020F0
:1005DC002C0100203C010020400100202A4A70B56B
:1005EC001368013B002B13603EDC436981699B68F7
:1005FC00264CDB4303EA11239BB2B3FA83F3216845
:10060C0090F82850B1F1FF3F4FEA5313C5F3400661
:10061C000AD19E4205BF042100230123116004BFAF
:10062C001B4A236013601FE007291EDD9E4216D073
:10063C0090F8693090F86A10013303F03F03994247
:10064C001FBF134D90F869102D6809180BBF45F0AA
:10065C00010581F8295080F8285080F86930012371
:10066C0013604FF0FF33236070BD094D9E42286824
:10067C0001F101014FEA500018BF40F08000032344
:10068C0028602160CEE700BF300100200C00002064
:10069C002401002008B5064B1A6812B11868FFF740
:1006AC009DFF044B1A6812B11868FFF75BFF08BD79
:1006BC00380100203C010020F8B504460D4600200E
:1006CC004FF47A71EEB2C4E901015F49222E216028
:1006DC002582628259D85D4F05F4E06157F8267087
:1006EC0039430F0917F00C0F02BF594807F00F07D9
:1006FC0050F8270001F00F016061564F57F8211098
:10070C00A161D1B2222955D8DFF840C102F4E060D2
:10071C005CF821C040EA0C004FEA101C1CF00C0FD6
:10072C0011BF4FF0000CDFF828E10CF00F0C5EF855
:10073C002CC000F00F00C4F81CC057F82000A5EB2B
:10074C00020C20620020DCF1000747EB0C075B0079
:10075C0043EA870394F8287003F00F0327F00F0780
:10076C003B43222984F86900606284F8283084F8BD
:10077C006A00E06634D8354B53F82100C0F30310FF
:10078C0001F0D6FF00283CD1FEE705F0C001C029DE
:10079C000CD1C92E0AD8304905F03F0751F827C0B3
:1007AC002A4F05F4E06157F82C7099E7002161613C
:1007BC000F21A2E702F0C000C0280DD1C9290BD827
:1007CC00254802F03F0C50F82CE0DFF880C002F412
:1007DC00E0605CF82EC09DE70020E0610F20ACE7E4
:1007EC0002F0C003C02B0AD1C92908D81A4B02F059
:1007FC003F0253F82220154B53F82200BEE70F207E
:10080C00BEE794F828305B071BD4222E08D80F4B78
:10081C0053F82600C0F3031001F08AFF88B9FEE7F5
:10082C0005F0C003C02B0AD1C92E08D80A4B05F01D
:10083C003F0553F82520054B53F82200EAE70F201B
:10084C00EAE72046F8BD00BFFC3F00084C43000817
:10085C0018000020504000082443000810B590F800
:10086C00283004465B07416209D4FFF793FD20460C
:10087C00FFF79FFD2046BDE81040FFF7FFBDFFF7D7
:10088C0089FD10BD0149024801F0B4BE00040040CE
:10089C0044010020014801F05BBD00BF4401002071
:1008AC007047000038B50E4B05461A784FF47A7332
:1008BC00B3FBF2F30B4A1068B0FBF3F000F09CF8BA
:1008CC00044658B90F2D09D8024629464FF0FF307F
:1008DC0000F042F82046044B1D6038BD0120FCE7B7
:1008EC00100000203000002014000020074A08B53A
:1008FC001368032043F01003136000F01BF8002072
:10090C00FFF7D0FFFFF7CCFF002008BD002002400E
:10091C00034A044B11681B780B441360704700BFEB
:10092C00F401002010000020014B1868704700BF34
:10093C00F401002007490302CA6803F4E06322F4BF
:10094C00E0621204120C134343F0BF6343F4003310
:10095C00CB60704700ED00E0154B30B5DC68C4F39C
:10096C000224C4F10703251D042B28BF0423062DE4
:10097C004FF0FF3594BF0024033C05FA03F321EA42
:10098C000303A54022EA0502A340002843EA020320
:10099C00ACBF00F16040074A4FEA0313DBB2ABBFB8
:1009AC0000F5614000F00F0080F80033135430BDA7
:1009BC0000ED00E014ED00E0002807DB0123410905
:1009CC00034A00F01F00834042F82130704700BFFB
:1009DC0000E100E000280CDB01220649430900F08D
:1009EC001F008240203341F82320BFF34F8FBFF309
:1009FC006F8F704700E100E00138B0F1807F0BD2BF
:100A0C004FF0E023F021054A586182F823100020B2
:100A1C00072298611A6170470120704700ED00E0D1
:100A2C00002808DB01224309034900F01F00824023
:100A3C00603341F82320704700E100E0704708B5AF
:100A4C00FFF7FCFF08BD704710B5044650B1437961
:100A5C0003F0FF0213B90271FFF7F5FF0123002029
:100A6C00637110BD0120FCE790F821200346022A97
:100A7C0006D0042282630120002283F820207047D4
:100A8C000268C06B116821F00E011160116821F031
:100A9C000101116001211A6C01FA02F2426000207E
:100AAC0083F82110E8E7000008B590F82130022BFC
:100ABC0003D004238363012008BD03681A6822F065
:100ACC000E021A601A6822F001021A60164A93424A
:100ADC001CD0143293421BD0143293421AD01432CD
:100AEC0093421AD0143293421AD01432934214BF48
:100AFC004FF080734FF480130C4A53604FF48073A3
:100B0C000384436B03B198470020D5E70123F3E737
:100B1C001023F1E74FF48073EEE74FF48053EBE7CB
:100B2C004FF48033E8E700BF0800024000000240A9
:100B3C00044A08B55169014202D0506101F01EFF10
:100B4C0008BD00BF000401402DE9F341054638B350
:100B5C000368DB0710D42B689F075ED42B6819073A
:100B6C0000F195802B685A0700F1C180EB69002BCE
:100B7C0040F02C81002029E0904C636803F00C03BA
:100B8C00042B07D0636803F00C03082B0AD16368AD
:100B9C00DE0307D523689C03DDD56B68002BDAD107
:100BAC00012013E06B68B3F5803F12D1236843F446
:100BBC0080332360FFF7B8FE064623689803CAD437
:100BCC00FFF7B2FE801B6428F7D9032002B0BDE802
:100BDC00F0819BB9236823F480332360236823F4CA
:100BEC0080232360FFF7A0FE064623689903B2D545
:100BFC00FFF79AFE801B6428F7D9E6E7B3F5A02F20
:100C0C00236803D143F480232360CFE723F480339C
:100C1C002360236823F48023CBE7684C636813F0CC
:100C2C000C0F07D0636803F00C03082B10D163681A
:100C3C00DA030DD423689B0702D52B69012BAFD1A6
:100C4C0023686A6923F0F80343EAC203236085E74B
:100C5C002A695B4B6AB101221A60FFF765FE0646F2
:100C6C0023689F07ECD4FFF75FFE801B0228F7D99F
:100C7C00ABE71A60FFF758FE0646236898077FF526
:100C8C006DAFFFF751FE801B0228F6D99DE7AA69CC
:100C9C004A4E4B4BE2B10122C3F88024FFF744FECD
:100CAC000446736A9B070DD54FF4FA52454B1B68EB
:100CBC00B3FBF2F3019300BF019B5A1E0192002B70
:100CCC00F9D14FE7FFF730FE001B0228E9D97CE78A
:100CDC00C3F88024FFF728FE0446736A9F077FF54C
:100CEC0041AFFFF721FE001B0228F6D96DE7334C0C
:100CFC00E369D80024D40127E36943F08053E3610E
:100D0C00E36903F080530093009B2F4E3368D905A1
:100D1C0018D5EB68012B26D1236A43F0010323621B
:100D2C00FFF702FE41F288380646236A9B073FD53F
:100D3C00002F3FF41BAFE36923F08053E36115E709
:100D4C000027E2E7336843F480733360FFF7ECFD70
:100D5C0080463368DA05DCD4FFF7E6FDA0EB08002B
:100D6C006428F6D931E7ABB9236A41F2883823F00D
:100D7C0001032362236A23F004032362FFF7D4FDEB
:100D8C000646236A9807D3D5FFF7CEFD801B404556
:100D9C00F7D91AE7052B236A03D143F00403236226
:100DAC00BAE723F001032362236A23F00403B6E7B6
:100DBC00FFF7BAFD801B4045B7D906E7001002408B
:100DCC000000424230000020007000402A4C626853
:100DDC0002F00C02082A3ED00022022B274B1A6686
:100DEC002CD1FFF7A1FD06462368990120D42B6A6C
:100DFC00B3F5803F05D16268A96822F400320A433A
:100E0C006260696A62680B4322F474121343012214
:100E1C0063601A4B1A66FFF787FD054623689A0133
:100E2C003FF5A8AEFFF780FD401B0228F6D9CCE6B3
:100E3C00FFF77AFD801B0228D6D9C6E6FFF774FDB2
:100E4C00054623689B017FF595AEFFF76DFD401BB2
:100E5C000228F6D9B9E6012B3FF4A2AE60682B6AE2
:100E6C0000F480329A427FF49BAE6B6A00F47010EF
:100E7C00C01A18BF0120A9E600100240000042422F
:100E8C0030B5184B87B002AC03F110052246186838
:100E9C005968083303C2AB421446F7D140F2012320
:100EAC001149ADF804304B6803F00C02082A17D135
:100EBC00C3F3834218326A44DB0312F8100C0CD5CE
:100ECC004B680A4AC3F34043504318336B4413F83E
:100EDC00143CB0FBF3F007B030BD054B5843FAE7B8
:100EEC000248F8E7284000080010024000127A007F
:100EFC0000093D002DE9F0410D46044610B90120D2
:100F0C00BDE8F081444A136803F007038B4228D3F1
:100F1C0021688E0730D4CA0743D43F4A136803F0C4
:100F2C000703AB4265D822683C4D12F0040F6CD11C
:100F3C00130706D56B68226923F4605343EAC20396
:100F4C006B60FFF79DFF6B68354AC3F30313D35CEB
:100F5C00D840344B1860344B1868FFF7A3FC0020C2
:100F6C00CEE7136823F007030B431360136803F0F9
:100F7C0007038B42C3D1CBE7284B11F0040F1EBFE4
:100F8C005A6842F4E0625A60080742BF5A6842F459
:100F9C0060525A605A68A06822F0F00202435A600C
:100FAC00B9E762681D4E012A33681AD113F4003F69
:100FBC00A5D0736841F2883823F0030313437360A0
:100FCC00FFF7B2FC07467368626803F00C03B3EBDF
:100FDC00820FA2D0FFF7A8FCC01B4045F3D9032019
:100FEC008EE7022A02D113F0007FE1E713F0020F23
:100FFC00DEE7136823F007032B431360136803F039
:10100C000703AB427FF47BAF8DE76B68E16823F499
:10101C00E0630B436B608BE7002002400010024042
:10102C00984000083000002014000020044B054AB2
:10103C005B68C3F30223D35C034A1068D840704743
:10104C00001002409040000830000020044B054A7C
:10105C005B68C3F3C223D35C034A1068D840704763
:10106C000010024090400008300000200F23036065
:10107C000B4B5A6802F0030242605A6802F0F0020D
:10108C0082605A6802F4E062C2605B68DB0803F4B9
:10109C00E0630361034B1B6803F007030B607047AD
:1010AC00001002400020024003682DE9F341054680
:1010BC00D80721D5364CE369D9002BD40126E36936
:1010CC0043F08053E361E36903F080530193019B88
:1010DC00304F3B68DA051FD5236A6A6813F44073F6
:1010EC002ED1236A6A6823F44073134323621EB122
:1010FC00E36923F08053E3612A68910706D52449FC
:10110C00A8684B6823F4404303434B60D30636D4A2
:10111C00002012E00026DBE73B6843F480733B6061
:10112C00FFF702FC80463B68DB05D5D4FFF7FCFBE0
:10113C00A0EB08006428F6D9032002B0BDE8F081CA
:10114C0002F440729A42CCD00120134A236AC2F8AE
:10115C004004002023F44071DF07C2F840042162F0
:10116C00BFD5FFF7E1FB41F288380746236A9807A1
:10117C00B7D4FFF7D9FBC01B4045F7D9DCE7044ACD
:10118C00E968536823F480030B435360C0E700BF46
:10119C00001002400070004000004242036A70B52B
:1011AC0023F001030362036A446882690D6822F02C
:1011BC0073022A438D6823F002032B430A4DA84285
:1011CC000BD1CD6823F008032B4324F44074D1E9F0
:1011DC000556354323F004032C43446082614A686E
:1011EC004263036270BD00BF002C0140036A70B5FE
:1011FC0023F480730362036A4468C2690D6822F0A9
:10120C0073022A438D6823F4007343EA05230B4DC4
:10121C00A8420DD1CD6823F4006343EA052324F4DE
:10122C004054D1E90556354323F4806344EA051450
:10123C004460C2614A68C263036270BD002C014005
:10124C00036A30B523F480530362036A4468C269AD
:10125C000D6822F4E64242EA05228D6823F400531D
:10126C0043EA0533064DA84202BF4D6924F480447D
:10127C0044EA85144460C2614A680264036230BD6A
:10128C00002C014090F83D30012B18D102230D4A5F
:10129C0080F83D300368934206D0B3F1804F03D001
:1012AC00A2F59432934204D19A6802F00702062AFE
:1012BC0003D01A6842F001021A6000207047012026
:1012CC00704700BF002C014041F211120368196AEB
:1012DC00114208D140F24442196A114202BF1A6805
:1012EC0022F001021A60012380F83D300020704783
:1012FC0090F83C200346012A4FF0020009D01A68EE
:10130C0083F83D0051610020012283F83C0083F8F2
:10131C003D20704770477047036810B51A69044642
:10132C0091070ED5DA6892070BD56FF002021A619D
:10133C00012202779B699B0777D001F0F2F9002319
:10134C00237723681A69500710D5DA6851070DD531
:10135C006FF004021A61022222779B69204613F473
:10136C00407F68D001F0DDF90023237723681A69E8
:10137C0012070FD5DA6810070CD56FF008021A6146
:10138C0004222277DB69204699075AD001F0C9F96B
:10139C000023237723681A69D20610D5DA68D006A1
:1013AC000DD56FF010021A6108222277DB692046F6
:1013BC0013F4407F4BD001F0B4F90023237723685A
:1013CC001A69D10708D5DA68D20705D56FF0010282
:1013DC0020461A6101F082F923681A69100608D5B3
:1013EC00DA68110605D56FF0800220461A6100F00C
:1013FC00E6FA23681A69520608D5DA68500605D54C
:10140C006FF0400220461A61FFF785FF23681A69C6
:10141C00910622D5DA6892061FD56FF0200220467D
:10142C00BDE810401A6100F0C9BA01F078F9204605
:10143C00FFF770FF83E701F072F92046FFF76AFFB0
:10144C0092E701F06CF92046FFF764FFA0E701F08A
:10145C0066F92046FFF75EFFAFE710BD114A03683F
:10146C00904206D0B0F1804F03D0A2F59432904256
:10147C0007D14A6823F070031343CA6823F44073FE
:10148C0013434A6923F08003134303608B68C362E0
:10149C000B688362034B984204BF0B6903630123FF
:1014AC0043617047002C014010B5044630B390F8EE
:1014BC003D3003F0FF021BB980F83C2001F0D0FD59
:1014CC000223206884F83D30211DFFF7C7FF01235C
:1014DC00002084F8463084F83E3084F83F3084F89D
:1014EC00403084F8413084F8423084F8433084F83A
:1014FC00443084F8453084F83D3010BD0120FCE7C1
:10150C00036A70B523F010030362036A44688269AE
:10151C000D6822F4E64242EA05228D6823F020038E
:10152C0043EA05130B4DA8420DD1CD6823F080037F
:10153C0043EA051324F44064D1E90556354323F0FE
:10154C00400344EA8504446082614A688263036212
:10155C0070BD00BF002C014010B590F83C30044623
:10156C00012B1BD0082A15D006D85AB1042A0DD04D
:10157C00002084F83C0010BD0C2AF9D10068FFF75C
:10158C005FFEF5E70068FFF709FEF1E70068FFF77B
:10159C00B7FFEDE70068FFF729FEE9E70220EAE76D
:1015AC0038B590F83C300446012B4ED00123082A64
:1015BC0080F83C3039D006D8BAB1042A25D00020A6
:1015CC0084F83C0038BD0C2AF9D10068FFF738FECE
:1015DC00C3690A6943F40063C361C36923F480637C
:1015EC00C361C36943EA02232DE00068FFF7D6FD0F
:1015FC0083690A6943F008038361836923F0040358
:10160C008361836913438361D9E70068FFF778FF2F
:10161C0083690A6943F400638361836923F48063FB
:10162C008361836943EA0223EDE70068FFF7DEFD7F
:10163C00C3690A6943F00803C361C36923F0040357
:10164C00C361C3691343C361B9E70220BAE7000061
:10165C0070B5046A104E24F001040462B04284692F
:10166C00056A15D0B0F1804F12D0A6F59436B04271
:10167C000ED044F001021B0122F0F002DBB2134346
:10168C0001F00A0125F00A0211438361016270BD69
:10169C0024F003042243EEE7002C0140F8B590F847
:1016AC003C300446012B0D46174673D0012380F8BD
:1016BC003C30EB68006806C96FB9FFF7C9FF836956
:1016CC00AA6823F00C0383618369134383610020B0
:1016DC0084F83C00F8BD042FAE68056A1DD125F0D6
:1016EC00100505628569076A25F4407545EA0225EF
:1016FC001B03090125F470459BB227F0A00701F0EC
:10170C00A0012B43394383610162836923F4406355
:10171C008361836943EA0623D8E7082F1CD125F49B
:10172C0080750562C569076A25F0030515431B0121
:10173C00090225F0F005DBB227F4007701F4007103
:10174C002B433943C3610162C36923F00C03C361AA
:10175C00C3693343C361BAE725F480550562C56993
:10176C00076A25F4407545EA02251B03090325F495
:10177C0070459BB227F4005701F400512B433943B9
:10178C00C3610162C36923F44063C361C36943EA63
:10179C000623DFE702209DE710B50124036A01F060
:1017AC001F018C4023EA04030362036A8A401A4334
:1017BC00026210BD08B529B990F83E30012B1DD03E
:1017CC0001202FE0042907D190F83F30012BF7D1ED
:1017DC00022380F83F3014E0082907D090F84130FC
:1017EC00012BEDD1022380F841300AE090F8403013
:1017FC00012BE5D1022380F8403002E0022380F86F
:10180C003E3000680122FFF7C7FF0C4B98420AD10B
:10181C00436C43F400434364836803F00703062BD3
:10182C0007D1002008BDB0F1804FF5D0044B984291
:10183C00F2D0036843F001030360F2E7002C01408F
:10184C0000040040FFF7B6BF034610B539BB90F853
:10185C003E4093F84220012CE0B2D2B253D1012A7F
:10186C001CD1022283F83E2083F842201868012202
:10187C00FFF792FF254B984206D0B0F1804F03D072
:10188C00A3F59433984204D1836803F00703062B25
:10189C0003D0036843F001030360002010BD04294A
:1018AC000FD190F83F4093F84320012CE0B2D2B214
:1018BC0029D1012AF2D1022283F83F2083F8432058
:1018CC00D4E708290FD090F8414093F84520012C1B
:1018DC00E0B2D2B217D1012AE0D1022283F8412022
:1018EC0083F84520C2E790F8404093F84420012C3F
:1018FC00E0B2D2B207D1012AD0D1022283F8402023
:10190C0083F84420B2E70120C8E700BF002C014057
:10191C0010B50424036A01F01F018C4023EA040370
:10192C000362036A8A401A43026210BD08B529B9E2
:10193C0090F84230012B1DD001203AE0042907D148
:10194C0090F84330012BF7D1022380F8433014E098
:10195C00082907D090F84530012BEDD1022380F8EF
:10196C0045300AE090F84430012BE5D1022380F891
:10197C00443002E0022380F8423000680422FFF772
:10198C00C7FF436C43F4004343640A4B984206D0B0
:10199C00B0F1804F03D0A3F59433984204D18368FF
:1019AC0003F00703062B03D0036843F00103036025
:1019BC00002008BD002C0140FFF7B8BF70477047EE
:1019CC000368DA6822F49072DA605A6922F0010234
:1019DC005A61026B012A02BFDA6822F01002DA6047
:1019EC00202380F83E3000230363704710B5044673
:1019FC000368C1681A6922F440520A431A6182686A
:101A0C000069D9680243606921F4B05121F00C01DE
:101A1C0002430A43DA605A69A16922F440720A430C
:101A2C005A610E4A934215D1FFF710FB1923434319
:101A3C00626820689200B3FBF2F36422B3FBF2F10C
:101A4C0002FB11331B013233B3FBF2F303EB011333
:101A5C00836010BDFFF7EAFAE8E700BF00380140E9
:101A6C00704710B5044640B390F83D3003F0FF02C8
:101A7C001BB980F83C20FFF7F3FF2423226884F87D
:101A8C003D30D368204623F40053D360FFF7AEFFFC
:101A9C00236800201A6922F490421A615A6922F0D4
:101AAC002A025A61DA6842F40052DA602023206478
:101ABC0084F83D3084F83E3010BD0120FCE710B5B1
:101ACC00044660B390F83D3003F0FF021BB980F878
:101ADC003C20FFF7C5FF2423226884F83D30D368EF
:101AEC00204623F40053D360FFF780FF23680020C7
:101AFC001A6922F490421A615A6922F022025A6140
:101B0C005A6942F008025A61DA6842F40052DA600B
:101B1C002023206484F83D3084F83E3010BD012031
:101B2C00FCE790F83D30202B18D1A9B1A2B190F868
:101B3C003C30012B12D0C28400238284212201620A
:101B4C000168036480F83C3080F83D20CA68184670
:101B5C0042F08002CA607047012070470220704733
:101B6C0008B50023406AC385C38401F033FC08BD6B
:101B7C00704790F83E3007B5222B37D18168026848
:101B8C00B1F5805F836A34D10169002934D1526880
:101B9C00C2F3080223F8022BC28D8362013A92B27F
:101BAC00C2851ABB0368D96821F02001D960D968B5
:101BBC0021F48071D960596921F00101596120210A
:101BCC0080F83E10016B012920D10263D96821F005
:101BDC001001D9601968C90605D501921A680192DD
:101BEC005B680193019B818DFFF7C2FF03B05DF829
:101BFC0004FB39B9016929B95268D2B21A70836AE7
:101C0C000133C9E7526802F07F02F7E701F0DCFB11
:101C1C00ECE70000036837B51A68044612F00F0FA2
:101C2C00D9685D6909D1950640F182808D067FD512
:101C3C0003B0BDE83040FFF79CBF15F0010543D061
:101C4C0012F0010F02F004035BD11BB1236C43F0C3
:101C5C0002032364900741D5236C12F0080F43F064
:101C6C000403236403D0236C43F008032364236C24
:101C7C00002B57D0920604D58B0602D52046FFF7D1
:101C8C0078FF216820464B69226C03F0400302F078
:101C9C00080253EA020547D0FFF792FE4B695D0636
:101CAC003DD54B69A06B23F040034B61002836D027
:101CBC00694B4363FEF7F8FE002833D0A06B436BEF
:101CCC0003B0BDE83040184711F4907F30D012F0CB
:101CDC00010F02F0040307D193070DD41007C6D5EA
:101CEC0001F020032B43BDE7C8050FD4002BF3D123
:101CFC009307F3D5002DAFD11507B8D511F0200FF0
:101D0C00B0E7C80502D4002BA0D1F1E7236C500733
:101D1C0043F001032364EBD5002DDDD096E720467C
:101D2C0001F058FB03B030BD01F054FB2564F9E71A
:101D3C00206B012855D1D00653D5CD0651D50021A5
:101D4C0001911A6801925A680192019A5A6912F02B
:101D5C0040022AD0A06B0268526892B2002AE1D0ED
:101D6C00A58D9542DED9E2858269202A15D0DA68E4
:101D7C0022F48072DA605A6922F001025A615A69BF
:101D8C0022F040025A61202284F83E202163DA6856
:101D9C0022F01002DA60FEF767FEE38DA18DC91AFE
:101DAC0089B22046FFF7E4FEBCE7E08DE58DA18DFE
:101DBC00ADB280B2002DB5D0091A89B20029B1D0CC
:101DCC00D86820F49070D860586920F001005861F0
:101DDC00202084F83E002263DA6822F01002DA60D8
:101DEC00DFE7100626D50D0624D594F83D20212AD0
:101DFC0098D1A168226AB1F5805F16D12169A1B989
:101E0C0032F8021BC1F3080159602262E28C013ADC
:101E1C0092B2E284002A85D1DA6822F08002DA607C
:101E2C00DA6842F04002DA607CE7511C21621278D9
:101E3C005A60EBE750067FF575AF4A067FF572AF37
:101E4C00DA68204622F04002DA60202384F83D3024
:101E5C0001F0BDFA66E700BF6D1B000890F83C303E
:101E6C00012B11D02423026880F83D30D36823F075
:101E7C000C0343F00803D360202380F83D3000238B
:101E8C0080F83C30184670470220704790F83C3080
:101E9C00012B11D02423026880F83D30D36823F045
:101EAC000C0343F00403D360202380F83D3000235F
:101EBC0080F83C30184670470220704790F83D205F
:101ECC0090F83E0010437047C285828581620346BC
:101EDC0022220020186483F83C0083F83E201B6803
:101EEC00DA6842F48072DA605A6942F001025A618F
:101EFC00DA6842F02002DA60704770B490F83E6005
:101F0C00202E0DD149B142B190F83C40012C07D0A4
:101F1C000024046370BCFFF7D7BF012070BC70476E
:101F2C000220FBE7836810B504462BB1032201465F
:101F3C0098470023C4E9023310BD836810B50446EA
:101F4C0013B1032201469847204610BD10B5044634
:101F5C0050F8103FDA6822F00102DA60DA6822F0F9
:101F6C000202DA60DA6822F00402DA60DA6822F03F
:101F7C000802DA60DA6822F01002DA60FFF7A4F9DE
:101F8C002269136823F001031360012384F84E3097
:101F9C0084F84F3084F8503084F8513084F8523043
:101FAC0084F8533084F8543084F8553010BD4B1EEF
:101FBC00032B9ABF880004384FF0FF3070470000A5
:101FCC000139435C2BB1022907D8054B33F81100BA
:101FDC007047032901D8034BF8E74FF0FF307047E7
:101FEC004A40000842400008013903299ABF024BBD
:101FFC00585C4FF0FF3070473D4000080139032911
:10200C009ABF024B58564FF0FF30704739400008CA
:10201C00F8B50446FFF7CBFF0246501C0E4600D124
:10202C00FEE72046FFF7E0FF411C054600D1FEE726
:10203C0031462046FFF7C4FF013000D1FEE7B71D43
:10204C0004EB0717BB682BB1E94323691961D96805
:10205C000D43DD60731E04EB430189880C293FD8C6
:10206C00DFE801F04646141414070714143F3F3FF1
:10207C002100E35C114604F110001BB1BDE8F840EF
:10208C00FFF79ABCBDE8F840FFF7DCBBE35C1146F8
:10209C0004F110001BB1BDE8F840FFF747BCBDE8E8
:1020AC00F840FFF787BB114604F11000FFF7CCFB9B
:1020BC0031462046FFF7A2FF014605462046FFF7B2
:1020CC007FFF2269136A1843BB68106243B129462B
:1020DC002046FFF789FFC3431361D3681843D060D0
:1020EC00F8BD04F110001146BDE8F840FFF7ACBB99
:1020FC0023691B68DB07F3D404F11000BDE8F8403A
:10210C00FFF7C0B8836E10B5044653B16FF00102EF
:10211C0050F8103F1A61DA6842F00102DA60FFF7FA
:10212C00B1F820460121FFF773FF20460221FFF78B
:10213C006FFF20460321FFF76BFF2046BDE81040E0
:10214C000421FFF765BF00002DE9F0478CB09946DC
:10215C000446FFF72CFF431C88461746054600D162
:10216C00FEE74FF6FF7305932369C8B95B6B002636
:10217C0006930123CDE90966CDE902360796089648
:10218C000B960196049608F1FF3A0C2F30D8DFE835
:10219C0007F01016285053555E606266646D6F0030
:1021AC00042801D19B6BE2E708280CBFDB6B1B6C8E
:1021BC00DDE705962A4605A904F1100016E004EBAC
:1021CC004808B8F802304BB100232A46A8F8023070
:1021DC0005A904F110000593FFF7BEF90CB0BDE89A
:1021EC00F08710232A46059305A9E018FFF7B4F9E8
:1021FC0004EB4A03B9F1FF3F9F80EFD0484600F053
:10220C006DFFA8424ED148462749093F00F02EFEEB
:10221C00032F05D8484601F0D7FB002101F092FCB2
:10222C004846214900F05CFEC0F3005004F80A0057
:10223C00D4E720230593BDE73023FBE760232A4630
:10224C0005A904F110000593FFF7AAF9D0E7702354
:10225C00F5E75023EEE74023ECE7022301932A46EF
:10226C0001A904F11000FFF719FAC1E70A23F5E7F9
:10227C0004F110062A4601A93046FFF70FFA414631
:10228C002046FFF7BBFE0C2204EB40035A800223CE
:10229C0001462046CDE90133FFF789FE01A902462C
:1022AC003046E0E7FEE700BF504100080139032942
:1022BC009ABF00EB410080880020704702696030B3
:1022CC00D36823F00103D360FFF72CBE012110303B
:1022DC00FFF70EB80369186800F00100704710B5DD
:1022EC0002460C46FFF7F6FF80B9CB68DB070ED52C
:1022FC00CB68104623F00103CB60FFF7E7FF6FF0CC
:10230C0001032361E36843F00103E36010BD104651
:10231C00BDE81040FFF7DABF0B460169013B8B6249
:10232C00FFF7DDBF094A034690420AD0B0F1804F57
:10233C0009D04FF6FF70A2F59432934208BF0220E9
:10234C007047002070470120704700BF002C0140EF
:10235C00014670B5044651F8100FFFF7E3FF054630
:10236C00084600F029FE0023084AE36042F82530B5
:10237C0004F1600604F1B005B54204D0103D2846C6
:10238C00FFF7DBFDF8E7204670BD00BFF801002029
:10239C00F8B504460846FFF7C5FF4FF6FF739842A1
:1023AC0000D1FEE7236903B1FEE71C4D04F10C02DA
:1023BC0045F820200E2204F110063046C4E90C33F7
:1023CC00C4E90E33C4E91033C4E91623216184F83F
:1023DC002C30A36484F84C3084F84D30E46000F069
:1023EC00B7FD04F1600504F1B00728461035FFF77E
:1023FC0099FDBD42F9D100234FF6FF72C4E90033B9
:10240C00C4E90632C4E90833A36063618023304613
:10241C00A362BDE8F840FFF747B800BFF801002001
:10242C0010B586B014220446002101A801F0ECFC82
:10243C000023694601A80093FEF718FE206900F0FE
:10244C0037FE012802D002280FD0FEE7049CFEF7CD
:10245C00EDFDB4F5C06F05D00BD824F48074B4F541
:10246C00806F00D1400006B010BD059CFEF7EEFD5C
:10247C00EFE7B4F5E06FF4E7012A38B505460C46F2
:10248C000BD0022A16D004B1013C29692846CC6233
:10249C00EC61BDE83840FFF722BFFFF7C1FF084BE6
:1024AC00B0FBF3F044432A69230C93620133B4FB71
:1024BC00F3F4E8E7FFF7B4FFB0FBF4F4F3E700BF85
:1024CC0040420F00036970B59D6A012A06460C460E
:1024DC0005F1010504D0022A0BD033695C6270BD92
:1024EC00FFF79EFF064BB0FBF3F36343B3FBF5F42E
:1024FC00F3E7FFF795FF6543B0FBF5F4EDE700BF9D
:10250C0040420F00F8B5054614461A46FFF74FFD3A
:10251C002B69411C06469F6A00D1FEE7822A07F10F
:10252C00010730D01CD8102A07D842B1DB6A03FB54
:10253C00044301249440013C18E0812A19D04FF641
:10254C00FF722969CB6A934203D1B4F5803F08BF6F
:10255C001C46EEB94C632846BDE8F840FFF7BFBEF9
:10256C00832AECD1DB6A03FB04436424B3FBF4F44D
:10257C00E5E72846FFF754FF0A4BB0FBF3F0604346
:10258C00B0FBF7F4DBE72846FFF74AFF6743F7E7B2
:10259C00042E01D18C63DEE7082E0CBFCC630C64D7
:1025AC00D9E700BF40420F00034B186810B104304C
:1025BC00FEF7B2BE704700BFF8010020FFF7F4BF72
:1025CC00034B586810B10430FEF7A6BE704700BF2D
:1025DC00F8010020034B986810B10430FEF79CBE44
:1025EC00704700BFF80100200022C0E90022C0E9BA
:1025FC0002227047F8B504460E4600F1600500F162
:10260C00B00728461035FFF7EFFFBD42F9D1002384
:10261C00204631462361FFF7BBFE2046F8BD38B596
:10262C000023C0E90033C0E902338B6804460D4631
:10263C002BB102229847EB68E360AB68A36020469D
:10264C0038BD30B587B002AD04462846FFF7E7FF2A
:10265C0095E803006B4683E8030094E8030085E8E3
:10266C00030093E80300049BA268A360059B0492FB
:10267C00E26884E80300E36028460592FFF75DFCFE
:10268C0007B030BD38B50446A36E0D4660301BB1A3
:10269C00BDE83840FFF7D5BFFFF7D3FFAB683BB1C0
:1026AC006FF0010223691A61DA6842F00102DA6004
:1026BC0038BD826810B50AB901F086FCC368BDE864
:1026CC001040184708B500B9FEE700F03FFC006861
:1026DC00836E13B16030FFF7ECFF08BDFFF7F2BF5C
:1026EC0010B500B9FEE7037F013B072B10D8DFE8DC
:1026FC0003F004140F100F0F0F12012400F026FC2E
:10270C000068063400EB041083680BB1FFF7D1FFAF
:10271C0010BD0324F2E70424F0E70224EEE7FFF7F0
:10272C00DFBFFFF7DDBF01F0B9BA01F0BFBA00009F
:10273C0084B0032834D8DFE800F0020F1B27194BB4
:10274C0019489A6942F004029A619B6903F00403E8
:10275C000093009B04B07047124B14489A6942F0E6
:10276C0008029A619B6903F008030193019BF1E74E
:10277C000C4B0F489A6942F010029A619B6903F066
:10278C0010030293029BE5E7064B0A489A6942F054
:10279C0020029A619B6903F020030393039BD9E702
:1027AC000020D7E70010024000080140000C014057
:1027BC0000100140001401402DE9F04789462449DE
:1027CC0098461746064600F069FBFFF7ABFDDFF8AD
:1027DC0084A004465AF8203073B9B020FFF7A3FF49
:1027EC001B490546304600F059FB01462846FFF7C9
:1027FC0001FF5AF824301D605AF824301449304631
:10280C001C6800F06DFBC0F3C43529462046FFF769
:10281C004DFD0528824605D0334605222946204623
:10282C00FFF792FC022249462046FFF725FE43465D
:10283C003A4629462046FFF765FEBAF1050F04D04B
:10284C002046BDE8F047FFF75DBCBDE8F08700BF50
:10285C0050410008F8010020F8B51449074600F073
:10286C001DFBFFF75FFD124E044656F8203073B97E
:10287C00B020FFF758FF0D490546384600F00EFB17
:10288C0001462846FFF7B6FE56F824301D6056F870
:10289C0024301C6844B12046FFF75AFD2046BDE8A1
:1028AC00F840B021FFF741BFF8BD00BF5041000810
:1028BC00F8010020FEF738B8704708B5FEF728F885
:1028CC00FEF7BDF8FFF7F8FF08BD70470F4B84B05B
:1028DC00DA6942F08052DA61DA6902F080520192D0
:1028EC00019A9A6942F001029A619A6902F0010216
:1028FC000292029A5A6942F040025A615B6903F0F3
:10290C0040030393039B04B0704700BF00100240C8
:10291C000C4BD3F8FC20D2015EBFD3F8FC2042F064
:10292C008072C3F8FC200022074B5A601A6842F0F0
:10293C0001021A6000BF00BF00BF5868B0FA80F0F7
:10294C004009704700ED00E0001000E008B5FFF70B
:10295C00BDFFFFF7DDFFFDF7C9FFFFF7B6FF00F086
:10296C00BBFDBDE808400148FEF76EB8280000200A
:10297C000023C0E90033C0E902337047002301286B
:10298C0003F101020AD11422DBB25343054A181D8C
:10299C001044816829B11A4413691847134640083A
:1029AC00EDE77047040200200120FEF7C1B80220B9
:1029BC00FEF7BEB80420FEF7BBB80820FEF7B8B887
:1029CC001020FEF7B5B838B505242025A8B2FEF7BF
:1029DC00AFF8013C4FEA4505F8D138BD38B50624AF
:1029EC004FF48065A8B2FEF7A3F8013C4FEA450509
:1029FC00F8D138BD344A08B51046062300F8043B1C
:102A0C00FFF7B6FF072302F118001375FFF7B0FFAD
:102A1C00082302F12C0082F82830FFF7A9FF0923C4
:102A2C0002F1400082F83C30FFF7A2FF0A23172185
:102A3C0002F1540082F85030FFF79AFF02F168005F
:102A4C0082F86410FFF794FF02F17C0082F8781092
:102A5C00FFF78EFF02F1900082F88C10FFF788FFD1
:102A6C0002F1A40082F8A010FFF782FF82F8B410E4
:102A7C00282102F1B800FFF77BFF02F1CC0082F8AD
:102A8C00C810FFF775FF02F1E00082F8DC10FFF7C9
:102A9C006FFF02F1F40082F8F010FFF769FF02F506
:102AAC00847082F80411FFF763FF02F58E7082F8D0
:102ABC001811FFF75DFFBDE8084002F5987082F829
:102ACC002C11FFF755BF00BF0402002038B5054C90
:102ADC00A4F5A075143C201DFFF72FFAAC42F9D1D8
:102AEC0038BD00BF44030020614B82B09A690138A5
:102AFC0042F001029A619B6903F001030193019B6F
:102B0C0023281AD8DFE800F0121B22292E353A416F
:102B1C00191919464D565B626B747980891919190C
:102B2C0019198E95191919199A9FA6AD514A5368FE
:102B3C0043F0E06343F00103536002B070474D4A29
:102B4C00536823F0010343F0E063F5E7494A536807
:102B5C0043F0E06343F00203EEE7464A536823F088
:102B6C000203F0E7434A536843F0E06343F0040385
:102B7C00E2E7404A536823F00403E4E73D4A536814
:102B8C0043F0E06343F00803D6E73A4A536823F076
:102B9C000803D8E7374A536843F0E06343F0C003B7
:102BAC00CAE7344A536823F0C00343F0E06343F0B0
:102BBC004003C1E72F4A536823F0C003C3E72D4AF3
:102BCC00536843F0E06343F44073B5E7294A536814
:102BDC0023F4407343F0E06343F40073ACE7254AFD
:102BEC00536823F4407343F0E06343F48073A3E72A
:102BFC00204A536823F44073A5E71E4A536843F0F8
:102C0C00E06343F4406397E71A4A536823F4406344
:102C1C0043F0E06343F400638EE7164A536823F4F1
:102C2C00406390E7134A536843F0E06343F4004376
:102C3C0082E7104A536823F4004384E70D4A536833
:102C4C0023F0E06378E70B4A536823F0E06343F02A
:102C5C00807371E7074A536823F0E06343F0007315
:102C6C006AE7044A536823F0E06343F0806363E748
:102C7C00001002400000014091FAA1F3B3FA83F373
:102C8C0070B50D0E0F2691FAA1F1B1FA81F14459EC
:102C9C009B0006FA03F3890024EA03048A402243CA
:102CAC00425170BD91FAA1F3B3FA83F370B50D0ED6
:102CBC00042691FAA1F1B1FA81F144599B0006FA6C
:102CCC0003F3890024EA03048A402243425170BD75
:102CDC00431C04D00C3151F80C3C5A1C01D100207F
:102CEC007047834201F10C01F5D1012070470000BF
:102CFC00431C2DE9F34106460F4600D1FEE7584B25
:102D0C0000F00F02C0F3031001F0070853F8225033
:102D1C00FFF70EFDB8F1010F044615D195FAA5F396
:102D2C00B3FA83F30321280E22589B0001FA03F314
:102D3C0022EA030295FAA5F3B3FA83F39B009940B8
:102D4C001143215001223BE0C7F30620B8F1030FD9
:102D5C000AD801A353F828F0772D0008512D00084C
:102D6C00C32D0008E52D0008FEE7FFF7BDFE082285
:102D7C0029462046FFF780FF95FAA5F22B0EB2FAF2
:102D8C0082F2E1580F239200934095FAA5F2B2FA21
:102D9C0082F2C7F301170B409200012F23FA02F3C2
:102DAC001CD0022F45D0082B2BD1042229462046BB
:102DBC00FFF762FF25E07F2801D0FFF795FE09227F
:102DCC0029462046FFF758FF17F0080218BF0422C7
:102DDC002946FFF767FFCFE70022C9E7042B04D190
:102DEC00082229462046FFF747FF01232A0A92FAB8
:102DFC00A2F2B2FA82F2E168934021EA15210B4368
:102E0C00E360184B9A6942F001029A619B6903F0E6
:102E1C0001030193019BA6F10D03012B14D8124A57
:102E2C00536823F0E06343F08063536002B0BDE865
:102E3C00F081042B04D1082229462046FFF71CFF01
:102E4C00E36823EA1523DBE70F2E02D0133E012E95
:102E5C00ECD8054A536823F0E06343F00073E4E7D1
:102E6C00504000080010024000000140431C06D1F5
:102E7C007047834202D18968FFF73ABF0C310B6867
:102E8C005A1CF6D1FEE70B685A1C01D10020704782
:102E9C00834201D1486870470C31F4E7431C01D0E0
:102EAC00FFF7F1BF002070474B6813B94FF0FF30AC
:102EBC007047834201D1086870470C31F4E708B1C0
:102ECC00FFF7F2BF4FF0FF30704703460868421C13
:102EDC0000D17047984201D1886870470C31F5E7F2
:102EEC00431C01D0FFF7F1BF704703468B420846E5
:102EFC0004D01BB100290CBF1846002070470000FD
:102F0C000F4B1A6842F001021A6059680D4A0A40C8
:102F1C005A601A6822F0847222F480321A601A689D
:102F2C0022F480221A605A6822F4FE025A604FF48E
:102F3C001F029A604FF00062034B9A60704700BF0B
:102F4C00001002400000FFF800ED00E0043870476C
:102F5C000368164A84B093420BD1154B9A6942F41C
:102F6C0000629A619B6903F400630193019B04B0B6
:102F7C007047B3F1804F0BD103F50433DA6942F09B
:102F8C000102DA61DB6903F001030293029BEEE7B5
:102F9C00084A9342EBD1064BDA6942F00202DA613D
:102FAC00DB6903F002030393039BE0E7002C014071
:102FBC00001002400004004003680E4A934206D100
:102FCC0002F56442936923F4006393617047B3F193
:102FDC00804F05D1084AD36923F00103D3617047B0
:102FEC00064A9342FBD102F50332D36923F0020364
:102FFC00F4E700BF002C0140001002400004004028
:10300C00431C0AD0094B98420AD003F594339842DA
:10301C0008D0B0F1804F07D0FEE76FF00D0070477D
:10302C001D207047192070471C2070470004004079
:10303C00431C0AD0094B98420AD003F594339842AA
:10304C0008D0B0F1804F07D0FEE76FF00D0070474D
:10305C001D2070471B2070471C2070470004004047
:10306C0038B50446FFF774FF0068FFF7C9FFD4E9D1
:10307C001212FDF771FC2068FFF7C2FFFDF79CFCF4
:10308C0022681046FFF7D4FF05461046FFF7B8FF3D
:10309C0085420BD0D4E912122846FDF75DFC20685E
:1030AC00FFF7C6FFBDE83840FDF786BC38BD000011
:1030BC00431C0AD0084B98420BD003F5943398422A
:1030CC0005D0B0F1804F04D0FEE7002070470220FD
:1030DC0070470120704700BF0004004008B5064946
:1030EC00FFF7FEFEC0F3C430431E032B00D9FEE7EE
:1030FC008000043808BD00BF504100082DE9F04F96
:10310C0085B098460E9B04468A46006D54499146FC
:10311C000193FFF7C3FE53498346606DFFF7BEFE74
:10312C0051490646A06DFFF7B9FE50490546E06DC2
:10313C00FFF7B4FE0746BBF1000F00F08D80626D07
:10314C00013202D0002E00F08780A26D013202D035
:10315C00002D00F08180E26D013201D0002F7BD078
:10316C0031465846FFF7C1FE29462060FFF7BDFEE9
:10317C0039462060FFF7B9FE206000286CD03C4B2C
:10318C0098424BD103F55843DA6842F48042DA6036
:10319C00DA6822F48042DA609A6942F480429A61D9
:1031AC009B6903F480430293029B2523A4F86030AF
:1031BC002B49206DFFF75AFE1EB12A49606DFFF7AF
:1031CC0055FE2DB12849A06DFFF750FE4FF48075C8
:1031DC002FB12649E06D45F40075FFF747FE94F8D2
:1031EC006120244B271D43F8227023680022C4E978
:1031FC00013A019B94F96000C4E904380C230121C5
:10320C00C4E90635C4F80C902262FDF7A5FB3846DC
:10321C00EEB905B0BDE8F04FFEF751BC164B984225
:10322C00C6D103F5E6331A6942F400321A611A6901
:10323C0022F400321A61DA6942F40032DA61DB6995
:10324C0003F400330393039B4FF49373AEE705B081
:10325C00BDE8F04FFEF705BC05B0BDE8F08F00BF30
:10326C0020410008F0400008CC400008A8400008AD
:10327C0000380140440300200044004010B4019C7D
:10328C0018B1019410BCFFF739BF10BC7047000097
:10329C0008B5074B90F8612053F82200FEF70EFE9C
:1032AC0000F02200A0F122035842584108BD00BF93
:1032BC004403002008B5074B90F8612053F8220016
:1032CC00FEF7FCFD00F02100A0F12103584258410B
:1032DC0008BD00BF4403002070B50E46054610B96A
:1032EC004FF0FF3070BDFFF7D3FF04460028F7D135
:1032FC00294611F8623F0122337095F86100034BA7
:10330C0053F82000FEF7F9FD2046EBE744030020BC
:10331C0038B50D460446B8B1FFF7BAFFA0B994F919
:10332C006000A564FDF756FB94F86100074B04F1AF
:10333C00620153F820000122FEF7DFFD94F96000D2
:10334C00BDE83840FDF738BB38BD00BF4403002052
:10335C0038B515460446B8B1C16490F96000FDF764
:10336C0039FBB4F87230A16E9BB294F86100194429
:10337C00064BAAB253F82000FEF7D3FB94F9600079
:10338C00BDE83840FDF718BB38BD00BF4403002032
:10339C0048B1436D013306D190F86120024B53F8CC
:1033AC002200FEF75BBD70474403002048B1436D1B
:1033BC00013306D190F86120024B53F82200FEF73E
:1033CC0065BD704744030020436C04381847836C78
:1033DC000438184730B5044650F8043985B01D68D8
:1033EC0015F0010512D0002200921A6800925B6859
:1033FC000093009BFFF74CFF40BB0122204604F1D9
:10340C005E0105B0BDE83040FEF777BD196811F0DC
:10341C00020106D001951A6801925B680193019B29
:10342C00E8E71A6812F0040206D002911A680292B8
:10343C005B680293029BDDE719680907DAD50392F2
:10344C001A6803925B680393039BD3E705B030BD06
:10345C0008B52520FDF7E4FA024B1868BDE80840D2
:10346C00FEF7D8BB44030020262008B5FDF7D8FA98
:10347C00034B586818B1BDE80840FEF7CBBB08BD3C
:10348C004403002003460A4910B508680344EFF3CF
:10349C000882934205D90C224FF0FF30054B1A607D
:1034AC0010BD054A054C121B9342F4D20B60F7E792
:1034BC0034000020B005002000280020000400008B
:1034CC00FEE700001622024B4FF0FF301A607047E7
:1034DC00B00500200120704710B594B014220021D3
:1034EC000CA800F091FC142200210DEB020000F05E
:1034FC008BFC1022002101A800F086FC02244FF462
:10350C0080330122CDE91143CDE90A234FF4E013B6
:10351C000AA80E921393FDF717FB00B1FEE70F23D9
:10352C00CDE905344FF480630790CDE9083021468E
:10353C0005A8FDF7DFFC00B1FEE7122301934FF461
:10354C000043CDE9033001A8FDF7AEFD00B1FEE765
:10355C0014B010BDB0F80431B0F80021981A00F086
:10356C003F007047B0F80431B0F800219BB2934291
:10357C001ABFD0F8F830985C4FF0FF30704790F8D5
:10358C000231B0F80601C0B2834227BFC3F13F033A
:10359C00C018C01A00F1FF30704707B503688DF8EA
:1035AC00071001225B680DF10701984703B05DF825
:1035BC0004FB13B50DF107010446FFF78DFE88B926
:1035CC00B4F87030B4F86C20013303F03F0393422D
:1035DC0008D0B4F870209DF80700616E92B2885440
:1035EC00A4F8703002B010BDB0F87210426F10B574
:1035FC000A4402F03F02A0F87220B0F87210B0F842
:10360C006E2089B28A421AD0B0F872404032A4B20D
:10361C00B0F87210121B544289B204F03F0402F04D
:10362C003F02C1F1400158BF62428A4228BF0A469C
:10363C0004494267FFF78CFE4FF0FF3010BD0020AD
:10364C00FCE700BFF535000803682DE9F0479B68DF
:10365C00044688461646984701232374D4F8E8306C
:10366C00B4F8029101338246C9F1400904F1940780
:10367C0008D194F80C312BB10023384684F80C3166
:10368C00FFF786FE236820469B6898470028F9D0F0
:10369C0035464D4523D8554521D8B4F80221D4F8E8
:1036AC00FC005319402B10442FD82A46414600F0F9
:1036BC00E9FBA946B4F8023138461D4405F03F0534
:1036CC00A4F80251FFF7F6FD30B94A4638461649C0
:1036DC00C4F80891FFF73CFE3046BDE8F087D145B1
:1036EC0028BFD14623684A4641465B682046984726
:1036FC00236820469B689847A5EB0905C844B4F895
:10370C0002918246C9F14009C3E7C2F140094A4619
:10371C00414600F0B7FBD4F8FC00A5EB090208EB1E
:10372C00090100F0AFFBC5E7F5350008037C33B1A8
:10373C00B0F80221B0F806319BB29A42FAD1704728
:10374C00C0F8EC30009B914208BF4FF0FF31C0F83D
:10375C00F03000F11103C0F8F8300023C0E9392132
:10376C0000F15102A0F80431C0E93F23A0F8063162
:10377C0070470000F7B54FF47A7317460022C0E982
:10378C0001231C4B044603604FF0FF33C0F8E830B4
:10379C00194B1A4E9C420D46F06A05D1B36AC4F817
:1037AC00E830C4F8E4000AE01549FFF777FB8542DE
:1037BC0015D1B36AC4F8E830F36AC4F8E4304FF0BA
:1037CC00FF33012F08BFC4F8E83000932046D4E93A
:1037DC0039214FF0FF33FFF7B3FF03B0F0BD28469C
:1037EC000849FFF76CFB0649C4F8E8002846FFF7C8
:1037FC0066FBD6E7E84300084C0300204C43000866
:10380C0020410008F0400008D0F8E83010B5013332
:10381C0004460ED10368DB68984794F80C3143B921
:10382C00012304F1940084F80C31BDE81040FFF73B
:10383C00BDBD10BD02F00703023BDBB2042B73B518
:10384C000546C0F8101180F80D21144602F0300026
:10385C0002D930280ED1FEE7154A3028D25C0CD1A3
:10386C004FF4C0630132082A0ED0092AF3D14FF469
:10387C0080520AE09306EED4EDE714F020031CBF4F
:10388C004FF480630132EEE70022C4F3C00405F16B
:10389C009406640330460094FFF7F0FC2846FFF7CB
:1038AC00B3FF3046034902B0BDE87040FFF730BDAE
:1038BC00D8430008BF35000810B50446FFF7A4FF35
:1038CC00B4F80421B4F8003192B29A4217BFD4F87C
:1038DC00F8204FF0FF30D05C01331CBF03F03F03E6
:1038EC00A4F8003110BD0000002202490248FFF785
:1038FC0041BF00BF003801404C0300202DE9F041CE
:10390C0006460D460C468F18BC4202D1601BBDE822
:10391C00F081A046336830461B6818F8011B9847A5
:10392C000028F3D04446EFE710B5044600F0A4F9A4
:10393C00E060236820465B699847002808DA00F0AD
:10394C009BF9E368C01AA3689842F2D34FF0FF309A
:10395C0010BDF8B507460D460C468E18B44201D181
:10396C00601BF8BD3846FFF7DFFF031EF8DB04F8D9
:10397C00013BF3E72DE9F0410746884616461D4604
:10398C0073B100243846FFF7CFFF031E05DB434518
:10399C0003D033550134A542F4D12046BDE8F08163
:1039AC001C46FAE708B50320FCF7C4FFBDE8084045
:1039BC0000F072B908B5AFF30080FCF7C1FBFCF75F
:1039CC0037FC00F05BF9FAE70309024613F00C0030
:1039DC0010B50DD1074BD1B253F8044B8C4203D127
:1039EC0002F4E062104310BD01302328F4D1FAE751
:1039FC002320F8E74C4300080C480D490D4A0023DE
:103A0C0002E0D458C4500433C4188C42F9D30A4A87
:103A1C000A4C002301E013600432A242FBD3FFF7EF
:103A2C006FFA00F009FAFFF7C5FF7047000000209D
:103A3C00940000203444000894000020B8050020B5
:103A4C00FEE791420FD008D90123891A8B40984286
:103A5C0008D30130C8400138704720B10130521AE8
:103A6C009040F8E700207047C3B2222B2DE9F041BB
:103A7C0007460E4631D82C4A00F4E06452F8233045
:103A8C001C43621C4ED020462849FFF721F9DFF871
:103A9C00A0800546002831D0264AC4F3031152F801
:103AAC00210004F00F0520FA05F3DB075FBF0123AB
:103ABC00AB40034342F821301F4BD8F800101D686F
:103ACC0030462A46FFF7BDFF1C490246EBB22046A2
:103ADC00BDE8F0410968FEF76FBE00F0C002C02AD5
:103AEC0020D1C92B1ED8164B00F03F0253F82220D0
:103AFC000D4B00F4E06453F82230C1E73846012145
:103B0C0000F020F8D8F8001030460822FFF799FF93
:103B1C007F2898BF29463846BDE8F04188BF01216F
:103B2C0000F06EB8BDE8F0814C430008504100082D
:103B3C0040000020600400203C00002038000020E1
:103B4C0024430008C3B2222B2DE9F0410D462AD89C
:103B5C00274A00F4E06452F823301C43621C44D022
:103B6C00244EC4F3031756F8273004F00F0823FA39
:103B7C0008F3DB0710D520461F49FFF7A9F810B151
:103B8C002046FEF769FE012256F8273002FA08F2A9
:103B9C0023EA020346F82730052D15D8DFE805F097
:103BAC0015211B1D1F2300F0C002C02A1DD1C92BDB
:103BBC001BD8124B00F03F0253F822200C4B00F4A0
:103BCC00E06453F82230C8E7FEE700212046BDE848
:103BDC00F041FFF78DB81021F8E72021F6E703211B
:103BEC00F4E70121F2E70921F0E7BDE8F08100BF1D
:103BFC004C43000860040020504100082443000896
:103C0C00C3B2222B18D8184A00F4E06052F82330C3
:103C1C001843030913F00C0F21D1144A03F00F03BE
:103C2C0052F82330124A00F00F0052F82020C2F351
:103C3C000F22B1B11A61704700F0C002C02A0CD13A
:103C4C00C92B0AD80B4B00F03F0253F82220064B2D
:103C5C0000F4E06053F82230DAE74FF0FF30002335
:103C6C00E0E75A61704700BF4C4300081800002081
:103C7C005040000824430008FEF71CBE08B5044B56
:103C8C002BB10448FFF766FC08B1AFF3008008BD08
:103C9C00000000004C030020FEF758BE024B01460A
:103CAC00186800F02DB800BF44000020024B0146FC
:103CBC00186800F0F5B800BF4400002070B50F4E36
:103CCC000C463168054611B900F0A6F83060214663
:103CDC00284600F0A1F8431C03D14FF0FF342046D6
:103CEC0070BDC41C24F00304A042F8D0211A28464D
:103CFC0000F092F80130F2D1EFE700BF7004002021
:103D0C002DE9F041CD1C25F0030508350C2D38BFED
:103D1C000C25002D064601DBA94204D90C23336087
:103D2C000020BDE8F081314F00F062F83B681C4682
:103D3C0044BB29463046FFF7C1FF431C044650D113
:103D4C003C682146002941D1002C44D023683046E0
:103D5C0004EB030800F060F880453CD12168304644
:103D6C006D1A2946FFF7AAFF013034D023682B4483
:103D7C0023603B68002B36D05A68A24229D100221E
:103D8C005A600EE02268521B1DD40B2A16D96119F9
:103D9C00A342256018BF5960636808BF396062513F
:103DAC004B60304600F02AF804F10B00231D20F084
:103DBC000700C21AB5D01B1AA350B2E7A34262681F
:103DCC00DED13A60EDE723466468B1E70C464968FA
:103DDC00B8E71346CEE70C233046336000F00EF8FC
:103DEC009EE70560DDE75B60FFDE00BF740400202A
:103DFC00014800F045B800BFB4050020014800F0B0
:103E0C0040B800BFB405002003460244934200D1E1
:103E1C00704703F8011BF9E738B50023054D04463C
:103E2C0008462B60FFF72EFB431C02D12B6803B115
:103E3C00236038BDB005002070B500260C4D0D4C2C
:103E4C00641BA410A64209D100F0C2F800260A4D4A
:103E5C000A4C641BA410A64205D170BD55F8043B56
:103E6C0098470136EEE755F8043B98470136F2E7E0
:103E7C000C4400080C4400080C44000824440008BE
:103E8C00704770470A44914200F1FF3300D17047EC
:103E9C0010B511F8014B914203F8014FF9D110BD47
:103EAC0038B50546002940D051F8043C0C1F002BB6
:103EBC00B8BFE418FFF79CFF1C4A136833B9636062
:103ECC0014602846BDE83840FFF798BFA34208D9D4
:103EDC00206821188B4201BF19685B6809182160A2
:103EEC00EDE71A465B680BB1A342FAD9116850187A
:103EFC00A0420BD120680144501883421160E0D1DC
:103F0C0018685B68084410605360DAE702D90C2328
:103F1C002B60D6E7206821188B4201BF19685B68BB
:103F2C000918216063605460CBE738BD740400202D
:103F3C00062008B500F02CF80120FFF7C1FA1F2964
:103F4C0038B505460C4604D9162303604FF0FF30F4
:103F5C0038BDC26B12B152F821304BB9284600F073
:103F6C0031F8224601462846BDE8384000F018B822
:103F7C00012B0AD0591C03D1162303600120E7E75B
:103F8C000021204642F8241098470020E0E700006A
:103F9C00024B01461868FFF7D2BF00BF4400002057
:103FAC0038B50023064D0446084611462B60FFF732
:103FBC0089FA431C02D12B6803B1236038BD00BFC2
:103FCC00B0050020FFF786BA08B5FFF7B1FF000077
:103FDC00F8B500BFF8BC08BC9E467047F8B500BFEA
:083FEC00F8BC08BC9E467047BA
:103FF4000000000000000000F50400080939000872
:1040040065020008B502000897020008690200086A
:10401400C50200085F3900088139000861040008FE
:104024007504000802030405060708090A0B0C0DB1
:104034000E0F101000020104030204081000010016
:104044001000000100100400400000040101000001
:104054000202000004040000080800001010000020
:104064002020000040400000808000000100010486
:1040740002000204040004040800080410001004F0
:104084002000200440004004800080040000000060
:104094000102030400000000000000000102030408
:1040A4000607080900000000004400401200000058
:1040B4000B0000000038014012000000FFFFFFFF6A
:1040C4000000000000000000010000000044004067
:1040D400120800000C00000000380140120000002B
:1040E400FFFFFFFF000000000000000003000000CD
:1040F40000440040100800000A000000003801409D
:1041040010060000170000000038014010050000F0
:10411400FFFFFFFF0000000000000000020000009D
:10412400004400401208000009000000003801406B
:1041340012060000160000000038014012050000BD
:10414400FFFFFFFF0000000000000000000000006F
:104154000000004012800000000100000000004048
:104164001290000001000000000000401212010043
:1041740001010000000000401210010002000000D4
:104184000000004012920100020100000000004003
:10419400129101000300000000000040121202000E
:1041A400030100000000004012110200060000009C
:1041B400000400401295000007000000002C01409C
:1041C400128D1000070100000004004012150100C8
:1041D40008000000002C0140128E000008010000BD
:1041E400002C0140128D000009000000002C014049
:1041F400120E010009010000002C0140120D010003
:104204000A000000002C0140128E01000A01000087
:10421400002C0140128D01000B000000002C014015
:10422400120E02000B010000002C0140120D0200CE
:104234000F00000000000040129100000F01000078
:1042440000000040128F000010000000002C01400C
:10425400120D11001001000000040040129501002D
:10426400100200000004004012940100110000003C
:10427400002C0140128D11001101000000040040C7
:104284001215020011020000000400401214020082
:10429400130000000000004012110100130100008F
:1042A40000000040120F0100140000000004004050
:1042B40012940000150000000004004012140100D4
:1042C4001A00000000000040129001001A010000D2
:1042D40000000040128F01001B000000000000409D
:1042E400121002001B01000000000040120F020027
:1042F4001D000000002C0140128E10001E00000062
:10430400002C0140120E11001F000000002C01407F
:10431400128E1100FFFFFFFF0000000000000000EC
:104324001400000015000000160000001700000033
:1043340018000000190000001A0000001B00000013
:104344001C0000001D0000001900000018000000FF
:104354001700000016000000150000001400000003
:10436400130000000F0000000C0000000B00000010
:104374000A00000009000000080000001F000000FF
:104384001E0000001D0000001C0000002D000000A5
:104394002E0000002F0000000000000001000000BB
:1043A40002000000030000000400000005000000FB
:1043B40006000000070000001000000011000000CB
:1043C4001A0000001B000000120000000D00000095
:1043D4000E000000060007000800000000000000B6
:1043E40000000000A7350008553600088B3500088A
:1043F4003937000861350008C538000871350008F0
:084404005F390008813900084E
:10440C00B139000831010008FD01000891080008CD
:08441C00012A0008F538000830
:104424000D0100080D020008A1080008D92A00089F
:10443400FC60DAF266B6BEE0FEF60000FFFFFFFFA6
:10444400010000001000000000080140000C0140C1
:104454000010014000140140003002400000000040
:104464000024F400B8050020E80300000800000060
:10447400080000004800002000000000780400202C
:10448400E0040020480500200000000000000000B7
:104494000000000000000000000000000000000018
:1044A4000000000000000000000000000000000008
:1044B40000000000000000000000000000000000F8
:0444C40000000000F4
:0400000508003A05B0
:00000001FF
